{
  "contractName": "Escrow",
  "abi": [
    {
      "inputs": [
        {
          "internalType": "address payable",
          "name": "_borrower",
          "type": "address"
        },
        {
          "internalType": "address payable[]",
          "name": "_lenders",
          "type": "address[]"
        },
        {
          "internalType": "uint256",
          "name": "_loanAmount",
          "type": "uint256"
        },
        {
          "internalType": "uint256",
          "name": "_loanPeriod",
          "type": "uint256"
        },
        {
          "internalType": "uint256",
          "name": "_interestRate",
          "type": "uint256"
        },
        {
          "internalType": "address",
          "name": "_thbTokenAddress",
          "type": "address"
        }
      ],
      "stateMutability": "nonpayable",
      "type": "constructor"
    },
    {
      "inputs": [],
      "name": "borrower",
      "outputs": [
        {
          "internalType": "address payable",
          "name": "",
          "type": "address"
        }
      ],
      "stateMutability": "view",
      "type": "function"
    },
    {
      "inputs": [],
      "name": "contractStatus",
      "outputs": [
        {
          "internalType": "uint256",
          "name": "",
          "type": "uint256"
        }
      ],
      "stateMutability": "view",
      "type": "function"
    },
    {
      "inputs": [],
      "name": "currentInstallment",
      "outputs": [
        {
          "internalType": "uint256",
          "name": "",
          "type": "uint256"
        }
      ],
      "stateMutability": "view",
      "type": "function"
    },
    {
      "inputs": [],
      "name": "installmentAmount",
      "outputs": [
        {
          "internalType": "uint256",
          "name": "",
          "type": "uint256"
        }
      ],
      "stateMutability": "view",
      "type": "function"
    },
    {
      "inputs": [],
      "name": "interestRate",
      "outputs": [
        {
          "internalType": "uint256",
          "name": "",
          "type": "uint256"
        }
      ],
      "stateMutability": "view",
      "type": "function"
    },
    {
      "inputs": [
        {
          "internalType": "address",
          "name": "",
          "type": "address"
        }
      ],
      "name": "lenderBalances",
      "outputs": [
        {
          "internalType": "uint256",
          "name": "",
          "type": "uint256"
        }
      ],
      "stateMutability": "view",
      "type": "function"
    },
    {
      "inputs": [
        {
          "internalType": "uint256",
          "name": "",
          "type": "uint256"
        }
      ],
      "name": "lenders",
      "outputs": [
        {
          "internalType": "address payable",
          "name": "",
          "type": "address"
        }
      ],
      "stateMutability": "view",
      "type": "function"
    },
    {
      "inputs": [],
      "name": "loanAmount",
      "outputs": [
        {
          "internalType": "uint256",
          "name": "",
          "type": "uint256"
        }
      ],
      "stateMutability": "view",
      "type": "function"
    },
    {
      "inputs": [],
      "name": "loanPeriod",
      "outputs": [
        {
          "internalType": "uint256",
          "name": "",
          "type": "uint256"
        }
      ],
      "stateMutability": "view",
      "type": "function"
    },
    {
      "inputs": [],
      "name": "remainingPrincipal",
      "outputs": [
        {
          "internalType": "uint256",
          "name": "",
          "type": "uint256"
        }
      ],
      "stateMutability": "view",
      "type": "function"
    },
    {
      "inputs": [],
      "name": "thbToken",
      "outputs": [
        {
          "internalType": "contract IERC20",
          "name": "",
          "type": "address"
        }
      ],
      "stateMutability": "view",
      "type": "function"
    },
    {
      "inputs": [],
      "name": "totalInterest",
      "outputs": [
        {
          "internalType": "uint256",
          "name": "",
          "type": "uint256"
        }
      ],
      "stateMutability": "view",
      "type": "function"
    },
    {
      "inputs": [],
      "name": "requestLoan",
      "outputs": [],
      "stateMutability": "nonpayable",
      "type": "function"
    },
    {
      "inputs": [],
      "name": "transferLoanToBorrower",
      "outputs": [],
      "stateMutability": "nonpayable",
      "type": "function"
    },
    {
      "inputs": [],
      "name": "makePayment",
      "outputs": [],
      "stateMutability": "nonpayable",
      "type": "function"
    },
    {
      "inputs": [],
      "name": "withdraw",
      "outputs": [],
      "stateMutability": "nonpayable",
      "type": "function"
    },
    {
      "inputs": [],
      "name": "claimFunds",
      "outputs": [],
      "stateMutability": "nonpayable",
      "type": "function"
    },
    {
      "inputs": [],
      "name": "getContractStatus",
      "outputs": [
        {
          "internalType": "uint256",
          "name": "",
          "type": "uint256"
        }
      ],
      "stateMutability": "view",
      "type": "function"
    }
  ],
  "bytecode": "0x608060405234801562000010575f80fd5b5060405162001e1338038062001e13833981810160405281019062000036919062000528565b6003855111156200007e576040517f08c379a0000000000000000000000000000000000000000000000000000000008152600401620000759062000663565b60405180910390fd5b614e20841115620000c6576040517f08c379a0000000000000000000000000000000000000000000000000000000008152600401620000bd90620006f7565b60405180910390fd5b855f806101000a81548173ffffffffffffffffffffffffffffffffffffffff021916908373ffffffffffffffffffffffffffffffffffffffff16021790555084600190805190602001906200011d92919062000227565b50836002819055508260038190555081600481905550600160098190555080600a5f6101000a81548173ffffffffffffffffffffffffffffffffffffffff021916908373ffffffffffffffffffffffffffffffffffffffff1602179055506200018b6200019760201b60201c565b50505050505062000866565b5f620001a8620001f160201b60201c565b600254620001b7919062000744565b905060035481620001c99190620007ab565b60058190555060025481620001df9190620007e2565b60068190555060025460088190555050565b5f6127106003546004546002546200020a91906200081c565b6200021691906200081c565b620002229190620007ab565b905090565b828054828255905f5260205f20908101928215620002a0579160200282015b828111156200029f578251825f6101000a81548173ffffffffffffffffffffffffffffffffffffffff021916908373ffffffffffffffffffffffffffffffffffffffff1602179055509160200191906001019062000246565b5b509050620002af9190620002b3565b5090565b5b80821115620002cc575f815f905550600101620002b4565b5090565b5f604051905090565b5f80fd5b5f80fd5b5f73ffffffffffffffffffffffffffffffffffffffff82169050919050565b5f6200030c82620002e1565b9050919050565b6200031e8162000300565b811462000329575f80fd5b50565b5f815190506200033c8162000313565b92915050565b5f80fd5b5f601f19601f8301169050919050565b7f4e487b71000000000000000000000000000000000000000000000000000000005f52604160045260245ffd5b6200038e8262000346565b810181811067ffffffffffffffff82111715620003b057620003af62000356565b5b80604052505050565b5f620003c4620002d0565b9050620003d2828262000383565b919050565b5f67ffffffffffffffff821115620003f457620003f362000356565b5b602082029050602081019050919050565b5f80fd5b5f6200041f6200041984620003d7565b620003b9565b9050808382526020820190506020840283018581111562000445576200044462000405565b5b835b818110156200047257806200045d88826200032c565b84526020840193505060208101905062000447565b5050509392505050565b5f82601f83011262000493576200049262000342565b5b8151620004a584826020860162000409565b91505092915050565b5f819050919050565b620004c281620004ae565b8114620004cd575f80fd5b50565b5f81519050620004e081620004b7565b92915050565b5f620004f282620002e1565b9050919050565b6200050481620004e6565b81146200050f575f80fd5b50565b5f815190506200052281620004f9565b92915050565b5f805f805f8060c08789031215620005455762000544620002d9565b5b5f6200055489828a016200032c565b965050602087015167ffffffffffffffff811115620005785762000577620002dd565b5b6200058689828a016200047c565b95505060406200059989828a01620004d0565b9450506060620005ac89828a01620004d0565b9350506080620005bf89828a01620004d0565b92505060a0620005d289828a0162000512565b9150509295509295509295565b5f82825260208201905092915050565b7f4578636565646564206d6178696d756d206e756d626572206f66206c656e64655f8201527f7273000000000000000000000000000000000000000000000000000000000000602082015250565b5f6200064b602283620005df565b91506200065882620005ef565b604082019050919050565b5f6020820190508181035f8301526200067c816200063d565b9050919050565b7f4c6f616e20616d6f756e742065786365656473206d6178696d756d206c696d695f8201527f7400000000000000000000000000000000000000000000000000000000000000602082015250565b5f620006df602183620005df565b9150620006ec8262000683565b604082019050919050565b5f6020820190508181035f8301526200071081620006d1565b9050919050565b7f4e487b71000000000000000000000000000000000000000000000000000000005f52601160045260245ffd5b5f6200075082620004ae565b91506200075d83620004ae565b925082820190508082111562000778576200077762000717565b5b92915050565b7f4e487b71000000000000000000000000000000000000000000000000000000005f52601260045260245ffd5b5f620007b782620004ae565b9150620007c483620004ae565b925082620007d757620007d66200077e565b5b828204905092915050565b5f620007ee82620004ae565b9150620007fb83620004ae565b925082820390508181111562000816576200081562000717565b5b92915050565b5f6200082882620004ae565b91506200083583620004ae565b92508282026200084581620004ae565b915082820484148315176200085f576200085e62000717565b5b5092915050565b61159f80620008745f395ff3fe608060405234801561000f575f80fd5b5060043610610114575f3560e01c806392cf10c9116100a0578063bc7a36d61161006f578063bc7a36d614610286578063c032846b146102a4578063c6ee20d2146102c2578063d8d79700146102e0578063e7595f5d146102ea57610114565b806392cf10c9146102105780639d585f7f1461022e578063a27a944d1461024c578063ac3077731461027c57610114565b80637c3a00fd116100e75780637c3a00fd146101685780637df1f1b9146101865780638770998e146101a45780638f022f8f146101c2578063929eea21146101e057610114565b806318b4dd3c14610118578063257965f5146101365780633ccfd60b146101405780636a8746e01461014a575b5f80fd5b6101206102f4565b60405161012d9190610c26565b60405180910390f35b61013e6102fa565b005b610148610496565b005b6101526105a6565b60405161015f9190610cb9565b60405180910390f35b6101706105cb565b60405161017d9190610c26565b60405180910390f35b61018e6105d1565b60405161019b9190610cf2565b60405180910390f35b6101ac6105f4565b6040516101b99190610c26565b60405180910390f35b6101ca6105fa565b6040516101d79190610c26565b60405180910390f35b6101fa60048036038101906101f59190610d39565b610600565b6040516102079190610cf2565b60405180910390f35b61021861063b565b6040516102259190610c26565b60405180910390f35b610236610641565b6040516102439190610c26565b60405180910390f35b61026660048036038101906102619190610d9f565b610647565b6040516102739190610c26565b60405180910390f35b61028461065c565b005b61028e6107fe565b60405161029b9190610c26565b60405180910390f35b6102ac610804565b6040516102b99190610c26565b60405180910390f35b6102ca61080d565b6040516102d79190610c26565b60405180910390f35b6102e8610813565b005b6102f2610a44565b005b60035481565b5f8054906101000a900473ffffffffffffffffffffffffffffffffffffffff1673ffffffffffffffffffffffffffffffffffffffff163373ffffffffffffffffffffffffffffffffffffffff1614610387576040517f08c379a000000000000000000000000000000000000000000000000000000000815260040161037e90610e4a565b60405180910390fd5b6001600954146103cc576040517f08c379a00000000000000000000000000000000000000000000000000000000081526004016103c390610ed8565b60405180910390fd5b600a5f9054906101000a900473ffffffffffffffffffffffffffffffffffffffff1673ffffffffffffffffffffffffffffffffffffffff166323b872dd5f8054906101000a900473ffffffffffffffffffffffffffffffffffffffff16306002546040518463ffffffff1660e01b815260040161044b93929190610f25565b6020604051808303815f875af1158015610467573d5f803e3d5ffd5b505050506040513d601f19601f8201168201806040525081019061048b9190610f8f565b506002600981905550565b6004600954146104db576040517f08c379a00000000000000000000000000000000000000000000000000000000081526004016104d29061102a565b60405180910390fd5b5f6006546002546104ec9190611075565b90505f6001805490508261050091906110d5565b90505f5b6001805490508110156105a15781600b5f6001848154811061052957610528611105565b5b905f5260205f20015f9054906101000a900473ffffffffffffffffffffffffffffffffffffffff1673ffffffffffffffffffffffffffffffffffffffff1673ffffffffffffffffffffffffffffffffffffffff1681526020019081526020015f2081905550808061059990611132565b915050610504565b505050565b600a5f9054906101000a900473ffffffffffffffffffffffffffffffffffffffff1681565b60045481565b5f8054906101000a900473ffffffffffffffffffffffffffffffffffffffff1681565b60055481565b60075481565b6001818154811061060f575f80fd5b905f5260205f20015f915054906101000a900473ffffffffffffffffffffffffffffffffffffffff1681565b60085481565b60025481565b600b602052805f5260405f205f915090505481565b5f600b5f3373ffffffffffffffffffffffffffffffffffffffff1673ffffffffffffffffffffffffffffffffffffffff1681526020019081526020015f2054116106db576040517f08c379a00000000000000000000000000000000000000000000000000000000081526004016106d2906111e9565b60405180910390fd5b5f600b5f3373ffffffffffffffffffffffffffffffffffffffff1673ffffffffffffffffffffffffffffffffffffffff1681526020019081526020015f205490505f600b5f3373ffffffffffffffffffffffffffffffffffffffff1673ffffffffffffffffffffffffffffffffffffffff1681526020019081526020015f2081905550600a5f9054906101000a900473ffffffffffffffffffffffffffffffffffffffff1673ffffffffffffffffffffffffffffffffffffffff1663a9059cbb33836040518363ffffffff1660e01b81526004016107ba929190611207565b6020604051808303815f875af11580156107d6573d5f803e3d5ffd5b505050506040513d601f19601f820116820180604052508101906107fa9190610f8f565b5050565b60065481565b5f600954905090565b60095481565b5f8054906101000a900473ffffffffffffffffffffffffffffffffffffffff1673ffffffffffffffffffffffffffffffffffffffff163373ffffffffffffffffffffffffffffffffffffffff16146108a0576040517f08c379a00000000000000000000000000000000000000000000000000000000081526004016108979061129e565b60405180910390fd5b6003600954146108e5576040517f08c379a00000000000000000000000000000000000000000000000000000000081526004016108dc9061132c565b60405180910390fd5b6003546007541061092b576040517f08c379a000000000000000000000000000000000000000000000000000000000815260040161092290611394565b60405180910390fd5b600a5f9054906101000a900473ffffffffffffffffffffffffffffffffffffffff1673ffffffffffffffffffffffffffffffffffffffff166323b872dd5f8054906101000a900473ffffffffffffffffffffffffffffffffffffffff16306005546040518463ffffffff1660e01b81526004016109aa93929190610f25565b6020604051808303815f875af11580156109c6573d5f803e3d5ffd5b505050506040513d601f19601f820116820180604052508101906109ea9190610f8f565b506109f3610bde565b600554610a0091906113b2565b60085f828254610a1091906113b2565b9250508190555060075f815480929190610a2990611132565b919050555060035460075403610a425760046009819055505b565b5f8054906101000a900473ffffffffffffffffffffffffffffffffffffffff1673ffffffffffffffffffffffffffffffffffffffff163373ffffffffffffffffffffffffffffffffffffffff1614610ad1576040517f08c379a0000000000000000000000000000000000000000000000000000000008152600401610ac890611455565b60405180910390fd5b600260095414610b16576040517f08c379a0000000000000000000000000000000000000000000000000000000008152600401610b0d906114e3565b60405180910390fd5b600a5f9054906101000a900473ffffffffffffffffffffffffffffffffffffffff1673ffffffffffffffffffffffffffffffffffffffff1663a9059cbb5f8054906101000a900473ffffffffffffffffffffffffffffffffffffffff166002546040518363ffffffff1660e01b8152600401610b93929190611501565b6020604051808303815f875af1158015610baf573d5f803e3d5ffd5b505050506040513d601f19601f82011682018060405250810190610bd39190610f8f565b506003600981905550565b5f612710600354600454600254610bf59190611528565b610bff9190611528565b610c0991906110d5565b905090565b5f819050919050565b610c2081610c0e565b82525050565b5f602082019050610c395f830184610c17565b92915050565b5f73ffffffffffffffffffffffffffffffffffffffff82169050919050565b5f819050919050565b5f610c81610c7c610c7784610c3f565b610c5e565b610c3f565b9050919050565b5f610c9282610c67565b9050919050565b5f610ca382610c88565b9050919050565b610cb381610c99565b82525050565b5f602082019050610ccc5f830184610caa565b92915050565b5f610cdc82610c3f565b9050919050565b610cec81610cd2565b82525050565b5f602082019050610d055f830184610ce3565b92915050565b5f80fd5b610d1881610c0e565b8114610d22575f80fd5b50565b5f81359050610d3381610d0f565b92915050565b5f60208284031215610d4e57610d4d610d0b565b5b5f610d5b84828501610d25565b91505092915050565b5f610d6e82610c3f565b9050919050565b610d7e81610d64565b8114610d88575f80fd5b50565b5f81359050610d9981610d75565b92915050565b5f60208284031215610db457610db3610d0b565b5b5f610dc184828501610d8b565b91505092915050565b5f82825260208201905092915050565b7f4f6e6c792074686520626f72726f7765722063616e20726571756573742074685f8201527f65206c6f616e0000000000000000000000000000000000000000000000000000602082015250565b5f610e34602683610dca565b9150610e3f82610dda565b604082019050919050565b5f6020820190508181035f830152610e6181610e28565b9050919050565b7f436f6e7472616374206973206e6f7420696e20746865207761697420737461745f8201527f7573000000000000000000000000000000000000000000000000000000000000602082015250565b5f610ec2602283610dca565b9150610ecd82610e68565b604082019050919050565b5f6020820190508181035f830152610eef81610eb6565b9050919050565b5f610f0082610c88565b9050919050565b610f1081610ef6565b82525050565b610f1f81610d64565b82525050565b5f606082019050610f385f830186610f07565b610f456020830185610f16565b610f526040830184610c17565b949350505050565b5f8115159050919050565b610f6e81610f5a565b8114610f78575f80fd5b50565b5f81519050610f8981610f65565b92915050565b5f60208284031215610fa457610fa3610d0b565b5b5f610fb184828501610f7b565b91505092915050565b7f436f6e7472616374206973206e6f7420696e2074686520656e64696e672073745f8201527f6174757300000000000000000000000000000000000000000000000000000000602082015250565b5f611014602483610dca565b915061101f82610fba565b604082019050919050565b5f6020820190508181035f83015261104181611008565b9050919050565b7f4e487b71000000000000000000000000000000000000000000000000000000005f52601160045260245ffd5b5f61107f82610c0e565b915061108a83610c0e565b92508282019050808211156110a2576110a1611048565b5b92915050565b7f4e487b71000000000000000000000000000000000000000000000000000000005f52601260045260245ffd5b5f6110df82610c0e565b91506110ea83610c0e565b9250826110fa576110f96110a8565b5b828204905092915050565b7f4e487b71000000000000000000000000000000000000000000000000000000005f52603260045260245ffd5b5f61113c82610c0e565b91507fffffffffffffffffffffffffffffffffffffffffffffffffffffffffffffffff820361116e5761116d611048565b5b600182019050919050565b7f4e6f2066756e647320617661696c61626c6520666f72207769746864726177615f8201527f6c00000000000000000000000000000000000000000000000000000000000000602082015250565b5f6111d3602183610dca565b91506111de82611179565b604082019050919050565b5f6020820190508181035f830152611200816111c7565b9050919050565b5f60408201905061121a5f830185610f16565b6112276020830184610c17565b9392505050565b7f4f6e6c792074686520626f72726f7765722063616e206d616b65207061796d655f8201527f6e74730000000000000000000000000000000000000000000000000000000000602082015250565b5f611288602383610dca565b91506112938261122e565b604082019050919050565b5f6020820190508181035f8301526112b58161127c565b9050919050565b7f436f6e7472616374206973206e6f7420696e207468652072657475726e696e675f8201527f2073746174757300000000000000000000000000000000000000000000000000602082015250565b5f611316602783610dca565b9150611321826112bc565b604082019050919050565b5f6020820190508181035f8301526113438161130a565b9050919050565b7f416c6c20696e7374616c6c6d656e74732068617665206265656e2070616964005f82015250565b5f61137e601f83610dca565b91506113898261134a565b602082019050919050565b5f6020820190508181035f8301526113ab81611372565b9050919050565b5f6113bc82610c0e565b91506113c783610c0e565b92508282039050818111156113df576113de611048565b5b92915050565b7f4f6e6c792074686520626f72726f7765722063616e207472616e7366657220745f8201527f6865206c6f616e00000000000000000000000000000000000000000000000000602082015250565b5f61143f602783610dca565b915061144a826113e5565b604082019050919050565b5f6020820190508181035f83015261146c81611433565b9050919050565b7f436f6e7472616374206973206e6f7420696e2074686520616363657074616e635f8201527f6520737461747573000000000000000000000000000000000000000000000000602082015250565b5f6114cd602883610dca565b91506114d882611473565b604082019050919050565b5f6020820190508181035f8301526114fa816114c1565b9050919050565b5f6040820190506115145f830185610f07565b6115216020830184610c17565b9392505050565b5f61153282610c0e565b915061153d83610c0e565b925082820261154b81610c0e565b9150828204841483151761156257611561611048565b5b509291505056fea2646970667358221220d60ce3da683c04175dfa4ab65e7d946fb35d9c4bd3d2ebd76267fee8d596038364736f6c63430008140033",
  "immutableReferences": {},
  "source": "// SPDX-License-Identifier: MIT\npragma solidity ^0.8.0;\n\nimport \"@openzeppelin/contracts/token/ERC20/IERC20.sol\";\n\ncontract Escrow {\n    address payable public borrower;\n    address payable[] public lenders;\n    uint public loanAmount;\n    uint public loanPeriod;\n    uint public interestRate;\n    uint public installmentAmount;\n    uint public totalInterest;\n    uint public currentInstallment;\n    uint public remainingPrincipal;\n    uint public contractStatus;\n    IERC20 public thbToken;\n\n    mapping(address => uint) public lenderBalances;\n\n    constructor(\n        address payable _borrower,\n        address payable[] memory _lenders,\n        uint _loanAmount,\n        uint _loanPeriod,\n        uint _interestRate,\n        address _thbTokenAddress\n    ) {\n        require(_lenders.length <= 3, \"Exceeded maximum number of lenders\");\n        require(_loanAmount <= 20000, \"Loan amount exceeds maximum limit\");\n\n        borrower = _borrower;\n        lenders = _lenders;\n        loanAmount = _loanAmount;\n        loanPeriod = _loanPeriod;\n        interestRate = _interestRate;\n        contractStatus = 1; // Wait status\n        thbToken = IERC20(_thbTokenAddress);\n        calculateInstallmentDetails();\n    }\n\n    function calculateInstallmentDetails() private {\n        uint totalAmount = loanAmount + calculateInterestAmount();\n        installmentAmount = totalAmount / loanPeriod;\n        totalInterest = totalAmount - loanAmount;\n        remainingPrincipal = loanAmount;\n    }\n\n    function calculateInterestAmount() private view returns(uint) {\n        return (loanAmount * interestRate * loanPeriod) / 10000;\n    }\n\n    function requestLoan() external {\n        require(msg.sender == borrower, \"Only the borrower can request the loan\");\n        require(contractStatus == 1, \"Contract is not in the wait status\");\n        thbToken.transferFrom(borrower, address(this), loanAmount);\n        contractStatus = 2; // Acceptance status\n    }\n\n    function transferLoanToBorrower() external {\n        require(msg.sender == borrower, \"Only the borrower can transfer the loan\");\n        require(contractStatus == 2, \"Contract is not in the acceptance status\");\n        thbToken.transfer(borrower, loanAmount);\n        contractStatus = 3; // Returning status\n    }\n\n    function makePayment() external {\n        require(msg.sender == borrower, \"Only the borrower can make payments\");\n        require(contractStatus == 3, \"Contract is not in the returning status\");\n        require(currentInstallment < loanPeriod, \"All installments have been paid\");\n        thbToken.transferFrom(borrower, address(this), installmentAmount);\n        remainingPrincipal -= installmentAmount - calculateInterestAmount();\n        currentInstallment++;\n\n        if (currentInstallment == loanPeriod) {\n            contractStatus = 4; // Ending status\n        }\n    }\n\n    function withdraw() external {\n        require(contractStatus == 4, \"Contract is not in the ending status\");\n        uint totalAmount = loanAmount + totalInterest;\n        uint amountPerLender = totalAmount / lenders.length;\n\n        for (uint i = 0; i < lenders.length; i++) {\n            lenderBalances[lenders[i]] = amountPerLender;\n        }\n    }\n\n    function claimFunds() external {\n        require(lenderBalances[msg.sender] > 0, \"No funds available for withdrawal\");\n        uint amount = lenderBalances[msg.sender];\n        lenderBalances[msg.sender] = 0;\n        thbToken.transfer(msg.sender, amount);\n    }\n\n    function getContractStatus() external view returns(uint) {\n        return contractStatus;\n    }\n}\n",
  "sourcePath": "/Users/tien/Developments/m.eng.fintech/independent-study/smartcontract/contracts/Escrow.sol",
  "compiler": {
    "name": "solc",
    "version": "0.8.20+commit.a1b79de6.Emscripten.clang"
  },
  "schemaVersion": "3.4.14",
  "updatedAt": "2023-07-02T15:02:25.665Z",
  "devdoc": {
    "kind": "dev",
    "methods": {},
    "version": 1
  },
  "userdoc": {
    "kind": "user",
    "methods": {},
    "version": 1
  }
}