{
  "contractName": "MyContract",
  "abi": [
    {
      "inputs": [
        {
          "internalType": "uint256",
          "name": "_number",
          "type": "uint256"
        },
        {
          "internalType": "string",
          "name": "_words",
          "type": "string"
        }
      ],
      "stateMutability": "nonpayable",
      "type": "constructor"
    },
    {
      "inputs": [],
      "name": "myNumber",
      "outputs": [
        {
          "internalType": "uint256",
          "name": "",
          "type": "uint256"
        }
      ],
      "stateMutability": "view",
      "type": "function"
    },
    {
      "inputs": [],
      "name": "myWords",
      "outputs": [
        {
          "internalType": "string",
          "name": "",
          "type": "string"
        }
      ],
      "stateMutability": "view",
      "type": "function"
    }
  ],
  "bytecode": "0x608060405234801562000010575f80fd5b506040516200080a3803806200080a833981810160405281019062000036919062000213565b815f8190555080600190816200004d9190620004a5565b50505062000589565b5f604051905090565b5f80fd5b5f80fd5b5f819050919050565b6200007b8162000067565b811462000086575f80fd5b50565b5f81519050620000998162000070565b92915050565b5f80fd5b5f80fd5b5f601f19601f8301169050919050565b7f4e487b71000000000000000000000000000000000000000000000000000000005f52604160045260245ffd5b620000ef82620000a7565b810181811067ffffffffffffffff82111715620001115762000110620000b7565b5b80604052505050565b5f6200012562000056565b9050620001338282620000e4565b919050565b5f67ffffffffffffffff821115620001555762000154620000b7565b5b6200016082620000a7565b9050602081019050919050565b5f5b838110156200018c5780820151818401526020810190506200016f565b5f8484015250505050565b5f620001ad620001a78462000138565b6200011a565b905082815260208101848484011115620001cc57620001cb620000a3565b5b620001d98482856200016d565b509392505050565b5f82601f830112620001f857620001f76200009f565b5b81516200020a84826020860162000197565b91505092915050565b5f80604083850312156200022c576200022b6200005f565b5b5f6200023b8582860162000089565b925050602083015167ffffffffffffffff8111156200025f576200025e62000063565b5b6200026d85828601620001e1565b9150509250929050565b5f81519050919050565b7f4e487b71000000000000000000000000000000000000000000000000000000005f52602260045260245ffd5b5f6002820490506001821680620002c657607f821691505b602082108103620002dc57620002db62000281565b5b50919050565b5f819050815f5260205f209050919050565b5f6020601f8301049050919050565b5f82821b905092915050565b5f60088302620003407fffffffffffffffffffffffffffffffffffffffffffffffffffffffffffffffff8262000303565b6200034c868362000303565b95508019841693508086168417925050509392505050565b5f819050919050565b5f6200038d62000387620003818462000067565b62000364565b62000067565b9050919050565b5f819050919050565b620003a8836200036d565b620003c0620003b78262000394565b8484546200030f565b825550505050565b5f90565b620003d6620003c8565b620003e38184846200039d565b505050565b5b818110156200040a57620003fe5f82620003cc565b600181019050620003e9565b5050565b601f82111562000459576200042381620002e2565b6200042e84620002f4565b810160208510156200043e578190505b620004566200044d85620002f4565b830182620003e8565b50505b505050565b5f82821c905092915050565b5f6200047b5f19846008026200045e565b1980831691505092915050565b5f6200049583836200046a565b9150826002028217905092915050565b620004b08262000277565b67ffffffffffffffff811115620004cc57620004cb620000b7565b5b620004d88254620002ae565b620004e58282856200040e565b5f60209050601f8311600181146200051b575f841562000506578287015190505b62000512858262000488565b86555062000581565b601f1984166200052b86620002e2565b5f5b8281101562000554578489015182556001820191506020850194506020810190506200052d565b8683101562000574578489015162000570601f8916826200046a565b8355505b6001600288020188555050505b505050505050565b61027380620005975f395ff3fe608060405234801561000f575f80fd5b5060043610610034575f3560e01c806323fd0e401461003857806392aeec2714610056575b5f80fd5b610040610074565b60405161004d919061011d565b60405180910390f35b61005e610079565b60405161006b91906101c0565b60405180910390f35b5f5481565b600180546100869061020d565b80601f01602080910402602001604051908101604052809291908181526020018280546100b29061020d565b80156100fd5780601f106100d4576101008083540402835291602001916100fd565b820191905f5260205f20905b8154815290600101906020018083116100e057829003601f168201915b505050505081565b5f819050919050565b61011781610105565b82525050565b5f6020820190506101305f83018461010e565b92915050565b5f81519050919050565b5f82825260208201905092915050565b5f5b8381101561016d578082015181840152602081019050610152565b5f8484015250505050565b5f601f19601f8301169050919050565b5f61019282610136565b61019c8185610140565b93506101ac818560208601610150565b6101b581610178565b840191505092915050565b5f6020820190508181035f8301526101d88184610188565b905092915050565b7f4e487b71000000000000000000000000000000000000000000000000000000005f52602260045260245ffd5b5f600282049050600182168061022457607f821691505b602082108103610237576102366101e0565b5b5091905056fea2646970667358221220bdde21724cb88993a424c7efa47f1922cd49dd57549d3af7c55cd141291ec04164736f6c63430008140033",
  "immutableReferences": {},
  "source": "// SPDX-License-Identifier: MIT\npragma solidity ^0.8.0;\n\ncontract MyContract {\n    // State variable and other contract code\n    uint public myNumber;\n    string public myWords;\n\n    constructor(uint _number, string memory _words) {\n        // Initialization code\n        myNumber = _number;\n        myWords = _words;\n    }\n}",
  "sourcePath": "/Users/tien/Developments/m.eng.fintech/independent-study/smartcontract/contracts/MyContract.sol",
  "compiler": {
    "name": "solc",
    "version": "0.8.20+commit.a1b79de6.Emscripten.clang"
  },
  "schemaVersion": "3.4.14",
  "updatedAt": "2023-07-02T15:02:25.671Z",
  "devdoc": {
    "kind": "dev",
    "methods": {},
    "version": 1
  },
  "userdoc": {
    "kind": "user",
    "methods": {},
    "version": 1
  }
}